:020000040800F2
:1000000000060020E1020008E3020008E302000805
:10001000E3020008E3020008E3020008E30200082C
:10002000E3020008E3020008E3020008AD2A00082A
:10003000E3020008E3020008E3020008E30200080C
:10004000E3020008E3020008E3020008E3020008FC
:10005000E3020008E30200085D420008894200084C
:10006000B5420008E14200080D430008F9100008FD
:10007000211100084D11000879110008A511000890
:10008000CD110008F9110008E3020008E30200089E
:10009000E3020008E3020008E30200083943000815
:1000A000E3020008E3020008E3020008E30200089C
:1000B000E3020008E3020008E3020008E30200088C
:1000C000E3020008E3020008E3020008E30200087C
:1000D000E3020008E3020008E3020008E30200086C
:1000E0009D430008E3020008E3020008E302000861
:1000F000E3020008E3020008E302000825120008FA
:10010000E3020008E302000811440008E3020008CB
:10011000E3020008E3020008E3020008E30200082B
:100120005112000879120008A5120008D112000827
:10013000FD120008E3020008E3020008E3020008E1
:10014000E3020008E3020008E3020008E3020008FB
:1001500025130008511300087D130008E30200086E
:10016000E3020008E3020008E3020008E3020008DB
:10017000E302000875360008E3020008E302000805
:10018000E3020008E3020008E3020008E3020008BB
:10019000E3020008E3020008E3020008E3020008AB
:1001A000E3020008E3020008E3020008E30200089B
:1001B000E3020008E3020008E3020008E30200088B
:1001C000E3020008E3020008E3020008E30200087B
:1001D000E302000861360008E3020008E3020008B9
:1001E000E3020008E3020008E3020008E30200085B
:1001F000E3020008E3020008E3020008E30200084B
:10020000E3020008E3020008E3020008E30200083A
:10021000E3020008E3020008E3020008E30200082A
:10022000E3020008E3020008E3020008E30200081A
:10023000E3020008E3020008E3020008E30200080A
:10024000E3020008E3020008E3020008E3020008FA
:10025000E3020008E3020008E3020008E3020008EA
:10026000E3020008E3020008E3020008E3020008DA
:10027000E3020008E3020008E3020008E3020008CA
:10028000E3020008E3020008E3020008E3020008BA
:10029000E3020008E3020008E3020008E3020008AA
:1002A000E3020008E3020008E3020008E30200089A
:1002B000E3020008E3020008E3020008E30200088A
:1002C000E3020008E3020008E3020008E30200087A
:1002D000E3020008E3020008E3020008E30200086A
:1002E00002E000F000F8FEE772B6374880F30888B5
:1002F000364880F3098836483649086040F20000E5
:10030000CCF200004EF63471CEF200010860BFF36B
:100310004F8FBFF36F8F40F20000C0F2F0004EF637
:100320008851CEF200010860BFF34F8FBFF36F8F8B
:100330004FF00000E1EE100A4EF63C71CEF20001E3
:100340000860062080F31488BFF36F8F02F010FC62
:1003500003F040FD4FF055301F491B4A91423CBF0E
:1003600041F8040BFAE71D49184A91423CBF41F895
:10037000040BFAE71A491B4A1B4B9A423EBF51F83D
:10038000040B42F8040BF8E700201849184A914280
:100390003CBF41F8040BFAE702F028FC03F09CFD97
:1003A000144C154DAC4203DA54F8041B8847F9E7A6
:1003B00000F042F8114C124DAC4203DA54F8041B21
:1003C0008847F9E702F010BC000600200022002058
:1003D0000000000808ED00E00000002000060020FA
:1003E00030490008002200205C220020602200200A
:1003F00088440020E0020008E0020008E002000853
:10040000E00200082DE9F04F2DED108AC1F80CD064
:10041000D0F80CD0BDEC108ABDE8F08F002383F338
:1004200011882846A047002001F00AFEFEE701F0EF
:1004300095FD00DFFEE7000038B500F0B1FC00F0EC
:1004400033FE02F0F3FA054602F026FB0446A8B993
:100450000E4B9D4215D001339D4214D041F2883598
:10046000002002F0EDFA0CB100F078F800F0F0FD99
:10047000284600F021F900F071F8F9E70025012481
:10048000EEE70546ECE70546F9E700BF010007B0D7
:1004900008B500F059FCA0F120035842584108BDAE
:1004A00007B541F21203022101A8ADF8043000F0B3
:1004B00067FC03B05DF804FB38B5302383F3118883
:1004C000174803680BB101F087FE0023154A4FF46B
:1004D0007A71134801F076FE002383F31188124CE1
:1004E000236813B12368013B2360636813B1636819
:1004F000013B63600D4D2B7833B963687BB90220F3
:1005000000F016FD322363602B78032B07D163685C
:100510002BB9022000F00CFD4FF47A73636038BDF4
:1005200070230020B9040008642300206C230020FD
:10053000084B187003280CD8DFE800F00805020803
:10054000022000F0EBBC022000F0DEBC024B0022D7
:100550005A6070476C23002064230020F8B5504B8C
:10056000504A1C461968013100F0998004339342C7
:10057000F8D162684C4B9A4240F291804B4B9B6899
:1005800003F1006303F500339A4280F08880002075
:1005900000F02CFC0220FFF7CBFF454B0021D3F8E5
:1005A000E820C3F8E810D3F81021C3F81011D3F8ED
:1005B0001021D3F8EC20C3F8EC10D3F81421C3F8C1
:1005C0001411D3F81421D3F8F020C3F8F010D3F8A5
:1005D0001821C3F81811D3F81821D3F8802042F05D
:1005E0000062C3F88020D3F8802022F00062C3F8B4
:1005F0008020D3F88020D3F8802042F00072C3F826
:100600008020D3F8802022F00072C3F88020D3F835
:10061000803072B64FF0E023C3F8084DD4E90004EF
:10062000BFF34F8FBFF36F8F224AC2F88410BFF31E
:100630004F8F536923F480335361BFF34F8FD2F848
:10064000803043F6E076C3F3C905C3F34E335B0154
:1006500003EA060C29464CEA81770139C2F8747224
:10066000F9D2203B13F1200FF2D1BFF34F8FBFF32C
:100670006F8FBFF34F8FBFF36F8F536923F4003336
:1006800053610023C2F85032BFF34F8FBFF36F8F17
:10069000302383F31188854680F308882047F8BD0E
:1006A0000000020820000208FFFF010800220020CD
:1006B0000044025800ED00E02DE9F04F95B0DFF85E
:1006C000E4B22022FF2101900CA8DBF8086000F0C2
:1006D00069FCAF4A1378A3B90121AE4811700360D9
:1006E000302383F3118803680BB101F075FD0023FB
:1006F000A94A4FF47A71A74801F064FD002383F3FF
:100700001188019B13B1A54B019A1A60A44A137872
:10071000032B03D000231370A04A53604FF000094D
:10072000019DCA464C46C846012000F0F7FB25B1A2
:100730009A4B1B68002B00F02082002000F004FB85
:100740000590059B002BF2DB012000F0DDFB059BF3
:10075000213B1F2BE8D801A252F823F0DD07000847
:10076000F907000881080008290700082907000880
:100770002907000811090008EB0A0008090A000807
:10078000670A00088F0A0008B50A00082907000850
:10079000C70A000829070008390B00087308000879
:1007A00029070008810B0008530900087308000896
:1007B00029070008670A0008290700082907000818
:1007C0002907000829070008290700082907000849
:1007D0002907000829070008810800080220FFF700
:1007E00057FE002800F0B58000F028FC0AF00B034B
:1007F00001240B2B71D105E14FF47A7000F0A4FABB
:10080000071EC0F2A6800220FFF742FE002800F07B
:10081000A080013F052F00F2DB81DFE807F0030A2B
:100820000D10132E0523042107A8079300F0A8FA42
:1008300017E004215B48F9E704215B48F6E704214F
:100840005A48F3E74FF01C08404608F1040800F04E
:10085000CFFA0421079007A800F092FAB8F12C0F04
:10086000F2D101234FF00008BB404AEA03035FFACC
:1008700083FA00F0E3FB84B3B8E704214C48D5E7E2
:10088000002C66D00AF00B030B2B61D10220FFF77E
:10089000FFFD044600285BD00120002700F0A6FAE7
:1008A0000220FFF745FE1FFA87F9484600F0AEFA2E
:1008B0000546B0B93A4B01222E4602201A7000F0CC
:1008C00023FBDBF80830B3421BD80026344BA1468B
:1008D0001E70324B5E6000F0B1FBFFF7E1FD234676
:1008E00074E1059948460137A1F140025142514156
:1008F00000F09CFA05460028D5D1A14641F212131A
:100900002EE0304600F074FA0130F6D10436D8E714
:10091000FCB10AF00B030B2B1AD10220FFF708FEE3
:10092000322000F011FA071E12DB17F003030FD17B
:10093000BA19DBF808108A420AD8B7F5807F07D8C1
:100940001C4A9F4213DCC820FFF7A2FD044698BB57
:100950000124019BB9F1000F08BF1D4641F212337B
:10096000022107A8ADF81C3000F00AFAB7E74FF4EF
:100970007A70CDE9023200F0E7F905900599002977
:10098000E7DB0599039A029B02F8011B0133D8E7C4
:100990006023002070230020B90400086423002095
:1009A0006C230020002200200422002008220020C6
:1009B0000C220020602200201F2E11D8C6F1200238
:1009C0000CAB26F003008449BA42184428BF3A46CB
:1009D000029200F0C7FA029AFF217F4800F0E2FA83
:1009E000BB10C7F387027C493046029300F0E2FA5D
:1009F0000746002882D00422029B3C4613FB026675
:100A000000F01CFB002568E70220FFF741FD0028ED
:100A10009FD000F029FA00289BD000273B4612E027
:100A20001F2F1AD80C9A013217D027F00302503228
:100A30006A4452F8200C07900422184607A900F0D7
:100A400045FB04370346DBF80820BA42E8D8079391
:100A5000042107A800F094F90BE73846029300F050
:100A6000C7F9029BE7E70023642106A8069300F07C
:100A70007FF900287FF46DAF0220FFF709FD002801
:100A80003FF467AF069800F0E5F90790E0E7002330
:100A9000642106A8069300F06BF900287FF459AF93
:100AA0000220FFF7F5FC00283FF453AF069800F052
:100AB000D3F9EAE70220FFF7EBFC00283FF449AF47
:100AC00000F0E2F9E1E70220FFF7E2FC00283FF442
:100AD00040AF07A9142000F0DDF907460421069075
:100AE00006A800F04DF93946B3E7322000F02CF9A2
:100AF000071EFFF62EAFBB077FF42BAF07EB0803F3
:100B0000DBF8082093423FF624AF0220FFF7C0FC39
:100B100000283FF41EAF27F003074744B8453FF4D1
:100B2000A8AE404608F1040800F062F904210790DD
:100B300007A800F025F9F1E74FF47A70FFF7A8FC59
:100B400000283FF406AF00F08FF900283FF4D6AE3E
:100B50000C9B01330CD008220CA9002000F02AFACB
:100B600000283FF4CBAE2022FF210CA800F01AFA97
:100B7000FFF796FC194801F069FA15B0BDE8F08F4F
:100B8000002C3FF4E6AE0AF00B030B2B7FF4E1AE32
:100B90000023642107A8079300F0EAF8074600281D
:100BA0007FF4D7AE0220FFF773FC029000283FF4D9
:100BB000D0AEFFF775FC41F2883001F047FA079894
:100BC00000F070FA3D4600F039FA029B1C46ABE596
:100BD0004FF00008BDE600BF60220020A0860100A3
:100BE0000F4B70B51B7805460C460133DBB2012B69
:100BF00010D80C484FF47A730168A2FB03322246E6
:100C00000E6A2946B047844204D1074B00220120D6
:100C10001A7070BD4FF4FA7001F018FA0020F8E76E
:100C20001022002040290020B823002000232DE9B5
:100C3000F0471A46054688460120194600F044FC54
:100C40000446802001F086FE074668B364B33C4E3C
:100C500028464FF0800A736943F0C0637361D6F889
:100C6000143143F0C063C6F8143101F0F1FC05EB18
:100C7000080200FB05F34FF03D0C00FB02FE4FF4B1
:100C8000D060734512D3204600F05EFC384601F078
:100C900095FE2B4B5A6942F0C0625A61D3F8142179
:100CA00042F0C062C3F81421BDE8F08731694A01FF
:100CB0002CD4D6F81011490128D4226803F1006120
:100CC00091602168CF602168C1F804A021680860A4
:100CD000D4F80090D9F8001041F00101C9F80010D3
:100CE000D4F80090D9F8001021F01E01C9F80010C6
:100CF000D4F80090D9F80010CA07FBD494F80C90EF
:100D0000803362680CFA09F11160BAE70D4B9A6AF8
:100D100042F400729A629A6A42F400429A6261B6A0
:100D20000026012001F078FDB04503D8002001F035
:100D300073FDA8E7A819013601F0A2FCF4E700BF93
:100D40000020005200ED00E0002307B5024601211B
:100D50000DF107008DF80730FFF742FF20B19DF835
:100D6000070003B05DF804FB4FF0FF30F9E7000027
:100D70000A46042108B5FFF733FF013808BD00001B
:100D800030B4054604480A4603682946DC69034B2B
:100D9000A44630BC604700BF40290020A086010067
:100DA00070B5104C0026104D01F056FC20802868CC
:100DB0002388834208D901F04BFC2B680644013399
:100DC000B6F5003F2B60F2D300252088013801F0F2
:100DD0003FFC23880544013BB5F5802F2380F4D3E5
:100DE00070BD00BFB0230020B423002001F014BD6B
:100DF00000F1006000F500300068704700F100600D
:100E0000920000F5003001F083BC0000054B1A6829
:100E1000054B1B889B1A834202D9104401F018BC71
:100E200000207047B4230020B023002038B50446CA
:100E3000074D29B128682044BDE8384001F020BCA6
:100E40002868204401F00AFC0028F3D038BD00BF18
:100E5000B42300200020704700F1FF5000F58F10F0
:100E6000D0F8000870470000064991F8243033B1EB
:100E700000230822086A81F82430FFF7BFBF012051
:100E8000704700BF88230020014B1868704700BFDF
:100E90000010005C194B1A4A70B51D68431E0420EF
:100EA000C5F30B040B442D0C013808D199420846B8
:100EB00010D30524134A013C15D1401A70BD168881
:100EC000A6420ED152680846013A9842F1D212F970
:100ED000014F1CB92C2200F8012BEAE700F8014B66
:100EE000F3E70832E0E71688AE4204D198423CBFEF
:100EF000967800F8016B0432DDE700BF0010005C5B
:100F000014220020DC440008022803D1024B4FF4D5
:100F100080429A61704700BF00080258022803D13E
:100F2000024B4FF080429A61704700BF00080258A0
:100F3000022804D1024A536983F480435361704705
:100F40000008025870B504464FF47A7604B970BDB3
:100F5000412C254628BF412506FB05F0641B01F006
:100F600075F8F3E7002310B5934200D110BDCC5CB7
:100F7000C4540133F8E70000013810B510F9013FFF
:100F80003BB191F900409C4203D11AB10131013AC1
:100F9000F4E71AB191F90020981A10BD1046FCE749
:100FA000FFF7FEBF02440346934200D1704703F8A7
:100FB000011BF9E72DE9F0471F4D14460746894606
:100FC00095F824209AB32B6A03EB820383422ED038
:100FD000FFF74AFF58BB0020BDE8F08795F82430A2
:100FE0002BB92022FF2114482F62FFF7DBFF95F871
:100FF00024004946C0F1080805EB8000A04528BF41
:10100000A0464FEA8802FFF7ADFF95F824305FFA5B
:1010100088F60FFA88FAA41B1E4407EB8A07F6B27B
:1010200009EB8809082EE4B285F82460D0D0002CA2
:10103000D4D10120D0E700BF88230020024B1A78CA
:10104000024B1A70704700BFB82300201022002006
:1010500010B5114C114800F029FB21460F4800F053
:1010600051FB24684FF47A70D4F89020D2F80438F9
:1010700043F00203C2F80438FFF764FF0849204632
:1010800000F04EFCD4F89020D2F8043823F002038C
:10109000C2F8043810BD00BFAC460008402900204B
:1010A000B44600087047000008B571B6054B1988B2
:1010B000054B1888FFF7BAFD02210E20FFF7B6FD99
:1010C00061B608BDB0230020B423002030B50A4427
:1010D000084D914200D130BD11F8013B5840082322
:1010E00040F30004013B2C4013F0FF0384EA50005E
:1010F000F6D1EEE72083B8ED08B5074B074A19682B
:1011000001F03D01996053680BB190689847BDE8C4
:10111000084001F003BD00BF00000240BC230020D6
:1011200008B5084B1968890901F03D018A019A60E8
:10113000054AD3680BB110699847BDE8084001F033
:10114000EDBC00BF00000240BC23002008B5084BE6
:101150001968090C01F03D010A049A60054A5369B7
:101160000BB190699847BDE8084001F0D7BC00BFBB
:1011700000000240BC23002008B5084B1968890D07
:1011800001F03D018A059A60054AD3690BB1106AE6
:101190009847BDE8084001F0C1BC00BF0000024014
:1011A000BC23002008B5074B074A596801F03D01F0
:1011B000D960536A0BB1906A9847BDE8084001F0C6
:1011C000ADBC00BF00000240BC23002008B5084BA6
:1011D0005968890901F03D018A01DA60054AD36A3C
:1011E0000BB1106B9847BDE8084001F097BC00BFF9
:1011F00000000240BC23002008B5084B5968090CC8
:1012000001F03D010A04DA60054A536B0BB1906BA3
:101210009847BDE8084001F081BC00BF00000240D3
:10122000BC23002008B5084B5968890D01F03D0129
:101230008A05DA60054AD36B0BB1106C9847BDE89C
:10124000084001F06BBC00BF00000240BC2300203E
:1012500008B5074B074A196801F03D019960536CC6
:101260000BB1906C9847BDE8084001F057BC00BF37
:1012700000040240BC23002008B5084B1968890906
:1012800001F03D018A019A60054AD36C0BB1106DE3
:101290009847BDE8084001F041BC00BF000402408F
:1012A000BC23002008B5084B1968090C01F03D016A
:1012B0000A049A60054A536D0BB1906D9847BDE8DA
:1012C000084001F02BBC00BF00040240BC230020FA
:1012D00008B5084B1968890D01F03D018A059A602F
:1012E000054AD36D0BB1106E9847BDE8084001F078
:1012F00015BC00BF00040240BC23002008B5074B0A
:10130000074A596801F03D01D960536E0BB1906EE8
:101310009847BDE8084001F001BC00BF000402404E
:10132000BC23002008B5084B5968890901F03D012C
:101330008A01DA60054AD36E0BB1106F9847BDE899
:10134000084001F0EBBB00BF00040240BC230020BA
:1013500008B5084B5968090C01F03D010A04DA6030
:10136000054A536F0BB1906F9847BDE8084001F0F4
:10137000D5BB00BF00040240BC23002008B5084BC9
:101380005968890D01F03D018A05DA60054AD36F7D
:1013900013B1D2F880009847BDE8084001F0BEBB09
:1013A00000040240BC23002000230C4A10B519465B
:1013B0000B4C42F8043B54F82300016042F8131030
:1013C0000433402BF7D1074A4FF0FF339360D360CB
:1013D000C2F80834C2F80C3410BD00BFBC23002092
:1013E0006C4500080000024011282DE9F0418846B4
:1013F00011D004D8102810D10F24002003E01228A7
:1014000007D10F2407202D4F4FF0010C3D68A0425B
:1014100005D900203BE00724EFE70446F3E70CFA88
:1014200000F6354248D107EBC0043543C4E9012337
:10143000F3B23D606BBB224BD3F8D84044F00204BA
:10144000C3F8D840D3F8004144F00204C3F8004187
:10145000D3F8003105011B4C6359186820F01F00B8
:101460001860186810F00100FBD166194FF03D0CB0
:1014700096F80CE071680CFA0EF70F6018602120E6
:1014800058611AB14146B07B00F068F86019BDE8B8
:10149000F0810B4B16F47F4FD3F8D84044F0010491
:1014A000C3F8D840D3F8004144F00104C3F8004128
:1014B000D3F80031CED0BEE70130A8E7BC2300202E
:1014C000004402586C45000810B5302484F311889C
:1014D000FFF78AFF002383F3118810BD10B504467F
:1014E000807B00F051F81649637B01229A400B681B
:1014F00023EA0203DAB20B6072B9124AD2F8D810AA
:1015000021F00101C2F8D810D2F8001121F0010138
:10151000C2F80011D2F8002113F47F4F0ED1094B0D
:10152000D3F8D82022F00202C3F8D820D3F8002143
:1015300022F00202C3F80021D3F8003110BD00BF31
:10154000BC2300200044025808B5302383F31188DF
:10155000FFF7C4FF002383F3118808BD090100F1E0
:101560006043012203F56143C9B283F8001300F020
:101570001F039A4043099B0003F1604303F5614355
:10158000C3F880211A60704700F01F0301229A40BF
:10159000430900F160409B0000F5614003F16043A6
:1015A00003F56143C3F88020C3F88021002380F84D
:1015B00000337047026843680A43026003B118476A
:1015C0007047000013B5406B00F58054D4F8A43880
:1015D0001A681178042914D1017C022911D11979D2
:1015E000012312898B4013420BD101A94C3002F028
:1015F0006DF9D4F8A4480246019B2179206800F0D7
:10160000DFF902B010BD0000143002F0F5B80000A0
:101610004FF0FF33143002F0EFB800004C3002F00E
:10162000C1B900004FF0FF334C3002F0BBB90000ED
:10163000143002F0C3B800004FF0FF31143002F054
:10164000BDB800004C3002F08DB900004FF0FF3201
:101650004C3002F087B900000020704710B500F54B
:101660008054D4F8A4381A681178042917D1017C61
:10167000022914D15979012352898B4013420ED18A
:10168000143002F055F8024648B1D4F8A4084FF4DB
:10169000407341790068BDE8104000F07FB910BD8B
:1016A000406BFFF7DBBF0000704700007FB5124BB7
:1016B00001250426044603600023057400F184021A
:1016C00043602946C0E902330C4B02901430019369
:1016D0004FF44073009602F007F8094B04F6944269
:1016E000294604F14C000294CDE900634FF44073A5
:1016F00002F0C8F804B070BD6C460008A1160008DE
:10170000C51500080A68302383F311880B790B3361
:1017100042F823004B79133342F823008B7913B13D
:101720000B3342F8230000F58053C3F8A4180223BA
:101730000374002080F311887047000038B5037FE0
:10174000044613B190F85430ABB90125201D022195
:10175000FFF730FF04F114006FF00101257700F06E
:101760009DFC04F14C0084F854506FF00101BDE879
:10177000384000F093BC38BD10B501210446043058
:10178000FFF718FF0023237784F8543010BD0000C2
:1017900038B504460025143001F0BEFF04F14C00BA
:1017A000257702F087F8201D84F854500121FFF7B7
:1017B00001FF2046BDE83840FFF750BF90F8802079
:1017C000034602F06002202A14D190F88120002004
:1017D000212A02D81F2A03D87047222A07D070472F
:1017E000054A5A6707229A67D86701207047C3E9FC
:1017F0001D00F9E7002070472C22002037B500F5C6
:101800008055D5F8A4381A68117804291AD1017CBA
:10181000022917D11979012312898B40134211D162
:1018200000F14C04204602F003F958B101A920460A
:1018300002F04CF8D5F8A4480246019B21792068B3
:1018400000F0BEF803B030BD01F10B03F7B550F85E
:10185000236004460D46F6B1302383F3118804EB70
:101860008507301D08214C36FFF7A4FEFB685B6935
:101870001B6813B1304602F037F801A9304602F078
:1018800025F8024648B1019B2946204600F098F809
:10189000002383F3118803B0F0BDFB685A69126816
:1018A000002AF5D01B8A013B1340F1D104F18002DC
:1018B000EAE70000133138B550F82140ECB130238D
:1018C00083F3118804F58053D3F8A4281368527960
:1018D00003EB8203DB689B695D6845B104216018F6
:1018E000FFF768FE294604F1140001F02BFF2046A3
:1018F000FFF7B4FE002383F3118838BD7047000062
:1019000001F004BA01234022002110B5044600F87A
:10191000303BFFF747FB0023C4E9013310BD000053
:1019200010B53023044683F311882422416000213E
:101930000C30FFF737FB204601F00AFA02230020A3
:10194000237080F3118810BD70B500EB810305464C
:1019500050690E461446DA6018B110220021FFF7D4
:1019600021FBA06918B110220021FFF71BFB3146B3
:101970002846BDE8704001F0F1BA000083682022DB
:10198000002103F0011310B5044683601030FFF707
:1019900009FB2046BDE8104001F068BBF0B401250A
:1019A00000EB810447898D40E4683D43A46945818B
:1019B00023600023A2606360F0BC01F085BB0000DF
:1019C000F0B4012500EB810407898D40E4683D43B4
:1019D0006469058123600023A2606360F0BC01F0AC
:1019E000F7BB000070B502230025044624220370D3
:1019F0002946C0F888500C3040F8045CFFF7D2FA52
:101A0000204684F8705001F03DFA63681B6823B1EA
:101A100029462046BDE87040184770BD0378052B65
:101A200010B504460AD080F88C3005230370436853
:101A30001B680BB1042198470023A36010BD000070
:101A40000178052906D190F88C20436802701B6844
:101A500003B118477047000070B590F87030044625
:101A600013B1002380F8703004F18002204601F0A9
:101A700021FB63689B68B3B994F8803013F060056C
:101A800035D00021204601F00BFE0021204601F058
:101A9000FBFD63681B6813B10621204698470623A7
:101AA00084F8703070BD204698470028E4D0B4F820
:101AB0008630A56F9D4284BF1D46A36794F9803090
:101AC000002B4FF0300380F20381002D00F0F280F4
:101AD000092284F8702083F3118800212046D4E97C
:101AE0001D23FFF76DFF002383F31188DAE794F8D5
:101AF000812003F07F0343EA022340F20232934243
:101B000000F0C58021D8B3F5807F48D00DD8012BD7
:101B10003FD0022B00F09380002BB2D104F1880259
:101B200062670222A267E367C1E7B3F5817F00F035
:101B30009B80B3F5407FA4D194F88230012BA0D1D3
:101B4000B4F8883043F0020332E0B3F5006F4DD0B3
:101B500017D8B3F5A06F31D0A3F5C063012B90D88F
:101B60006368204694F882205E6894F88310B4F885
:101B70008430B047002884D0436863670368A36754
:101B80001AE0B3F5106F36D040F6024293427FF46C
:101B900078AF5C4B63670223A3670023C3E794F825
:101BA0008230012B7FF46DAFB4F8883023F002034C
:101BB000A4F88830C4E91D55E56778E7B4F88030AB
:101BC000B3F5A06F0ED194F88230204684F88A30A5
:101BD00001F0B6F963681B6813B1012120469847EC
:101BE000032323700023C4E91D339CE704F18B0316
:101BF00063670123C3E72378042B10D1302383F3D9
:101C000011882046FFF7BAFE85F311880321636827
:101C100084F88B5021701B680BB12046984794F8CC
:101C20008230002BDED084F88B300423237063686D
:101C30001B68002BD6D0022120469847D2E794F8A3
:101C4000843020461D0603F00F010AD501F024FA66
:101C5000012804D002287FF414AF2B4B9AE72B4BBA
:101C600098E701F00BFAF3E794F88230002B7FF449
:101C700008AF94F8843013F00F01B3D01A06204651
:101C800002D501F025FDADE701F016FDAAE794F8B5
:101C90008230002B7FF4F5AE94F8843013F00F01FE
:101CA000A0D01B06204602D501F0FAFC9AE701F00D
:101CB000EBFC97E7142284F8702083F311882B46FD
:101CC0002A4629462046FFF769FE85F31188E9E692
:101CD0005DB1152284F8702083F31188002120461D
:101CE000D4E91D23FFF75AFEFDE60B2284F870208D
:101CF00083F311882B462A4629462046FFF760FECB
:101D0000E3E700BF9C460008984600089446000898
:101D100038B590F870300446002B3ED0063BDAB25E
:101D20000F2A34D80F2B32D8DFE803F037313108CF
:101D3000223231313131313131313737856FB0F8BD
:101D400086309D4214D2C3681B8AB5FBF3F203FBB5
:101D500012556DB9302383F311882B462A46294644
:101D6000FFF72EFE85F311880A2384F870300EE009
:101D7000142384F87030302383F311880023204625
:101D80001A461946FFF70AFE002383F3118838BD6F
:101D9000C36F03B198470023E7E70021204601F015
:101DA0007FFC0021204601F06FFC63681B6813B1C3
:101DB0000621204698470623D7E7000010B590F883
:101DC00070300446142B29D017D8062B05D001D823
:101DD0001BB110BD093B022BFBD80021204601F0AE
:101DE0005FFC0021204601F04FFC63681B6813B1C3
:101DF000062120469847062319E0152BE9D10B232D
:101E000080F87030302383F3118800231A46194676
:101E1000FFF7D6FD002383F31188DAE7C3689B69D7
:101E20005B68002BD5D1C36F03B19847002384F8BA
:101E30007030CEE700238268037503691B689968D8
:101E40009142FBD25A68036042601060586070474C
:101E500000238268037503691B6899689142FBD867
:101E60005A680360426010605860704708B50846C1
:101E7000302383F311880A7D0023052A06D8DFE882
:101E800002F00B050503120E826913604FF0FF3359
:101E90008361FFF7CFFF002383F3118808BD8269B8
:101EA000936801339360D0E9003213605A60EDE724
:101EB000FFF7C0BF054BD968087518680268536002
:101EC0001A600122D8600275FEF79CBA50260020E5
:101ED0000C4B30B5DD684B1C87B004460FD02B4649
:101EE000094A684600F06EF92046FFF7E3FF009BC1
:101EF00013B1684600F070F9A86907B030BDFFF76C
:101F0000D9FFF9E7502600206D1E000838B50C4DAA
:101F100004468161EB6881689A68914203D8BDE804
:101F20003840FFF787BF1846FFF792FF01230146AD
:101F3000EC6020462375BDE83840FEF763BA00BF69
:101F400050260020044B1A68DB6890689B68984212
:101F500094BF00200120704750260020084B10B588
:101F60001C68D868226853601A600122DC60227500
:101F7000FFF76EFF01462046BDE81040FEF742BA6B
:101F80005026002038B50123084C002523706560D9
:101F900001F08AFD01F0B0FD0549064801F086FE1A
:101FA0000223237085F3118838BD00BFA8260020C6
:101FB000A04600085026002000F044B9034A5168AA
:101FC00053685B1A9842FBD8704700BF001000E0CE
:101FD0008B600223086108468B8270478368A3F1F7
:101FE000840243F8142C026943F8442C426943F8F4
:101FF000402C094A43F8242CC268A3F1200043F87E
:10200000182C022203F80C2C002203F80B2C034A94
:1020100043F8102C704700BF1D0400085026002014
:1020200008B5FFF7DBFFBDE80840FFF741BF000040
:10203000024BDB6898610F20FFF73CBF5026002061
:10204000302383F31188FFF7F3BF000008B5014682
:10205000302383F311880820FFF73AFF002383F32E
:10206000118808BD064BDB6839B1426818605A60B8
:10207000136043600420FFF72BBF4FF0FF30704721
:102080005026002003460068834205D002681A608B
:1020900053608161FFF70CBF7047000038B50446FC
:1020A0000D462068844200D138BD036823605C601F
:1020B0008561FFF7FDFEF4E7036810B59C68A24256
:1020C0000CD85C680B608A604C602160596099682C
:1020D000891A99604FF0FF33836010BD121B1B6893
:1020E000ECE700000A2938BF0A2170B504460D4606
:1020F0000A26601901F0D2FC01F0BAFC041BA542CB
:1021000003D8751C04462E46F3E70A2E04D9012095
:10211000BDE8704001F00ABE70BD0000F8B5144B78
:1021200014460A270D46D9610A2C826003F1100279
:1021300038BF0A2442601A690260506018610819A9
:1021400001F09CFC01F094FC431B0646A34206D31D
:102150007C1C28192746354601F0A0FCF2E70A2F1F
:1021600004D90120BDE8F84001F0E0BDF8BD00BF92
:102170005026002070B50D46064601F079FC0F4947
:102180000B4653F8102F9A4206D12A460146304694
:10219000BDE87040FFF7C2BFCB69C41A93682C1921
:1021A00028BF2C46A34202D92946FFF79BFF2246AF
:1021B00031460348BDE87040FFF77EBF502600203F
:1021C0006026002010B4C0E9032300235DF8044B0F
:1021D0004361FFF7CFBF000010B5194C2369984247
:1021E0000DD08168D0E9003213605A609A680A44C1
:1021F0009A60002303604FF0FF33A36110BD0268B3
:10220000234643F8102F53600022026022699A424D
:1022100003D1BDE8104001F03BBC936881680B44DA
:10222000936001F025FC2269E1699268441AA24298
:10223000E4D91144BDE81040091AFFF753BF00BFAD
:10224000502600202DE9F843284E294F356901F02A
:102250000FFCF469AA68011B8A423AD81444D5E9F4
:102260000032F46113605A6000232B609846326993
:10227000BA4201D101F00CFC88F31188D5E9033191
:1022800028469847302383F311886B69002BDDD0F3
:1022900001F0EEFB6A69A0EB0408814642450CD2CE
:1022A000022001F043FD00223369BB4208D14946B8
:1022B0002846BDE8F843FFF731BF2244121AF3E77E
:1022C00012EB080829460A4838BF4246FFF7F4FED9
:1022D000BBE73169B94207D01444F061211AA96003
:1022E000BDE8F843FFF7FEBEBDE8F88350260020A6
:1022F0006026002000207047FEE7000070470000C5
:102300004FF0FF307047000002290CD0032904D0A1
:102310000129074818BF00207047032A05D805483F
:1023200000EBC2007047044870470020704700BFB0
:102330005C470008342200201047000870B59AB0AE
:1023400005460846144601A900F0C0F801A8FEF7AA
:1023500027FE431C0022C6B21BB210465B00C5E933
:10236000003423700323023404F8013C01ABD1B2E2
:1023700002348E4201D81AB070BD13F8011B01322D
:1023800004F8010C04F8021CF1E7000008B5302342
:1023900083F311880348FFF731FA002383F3118890
:1023A00008BD00BF4029002090F8803003F01F02D4
:1023B000012A07D190F881200B2A03D10023C0E91C
:1023C0001D3315E003F06003202B08D1B0F88430F2
:1023D0002BB990F88120212A03D81F2A04D8FFF7AF
:1023E000EDB9222AEBD0FAE7034A42670722826757
:1023F000C3670120704700BF5422002010B5044677
:10240000052916D8DFE801F016150316161D30232E
:1024100083F311880E4A0121FFF796FA20460D4AF0
:102420000221FFF791FA0C48FFF7B2F9002383F37A
:10243000118810BD302383F311880748FFF77EF918
:10244000F4E7302383F311880348FFF795F9EDE7AC
:10245000E8460008C44600084029002038B50B4C67
:102460000B4D0A4A0B490A48FFF768FF04F1CA02FC
:1024700005F108000849FFF761FF04F5CA7205F18C
:1024800010000649BDE83840FFF758BFE02600209D
:102490003C2200201A450008244500082F4500086A
:1024A00070B5044608460D46FEF77AFDC6B22046D2
:1024B000013403780BB9184670BD32462946FEF741
:1024C0005BFD0028F3D10120F6E70000F8B50546D2
:1024D0000C46FEF765FD284907462846FFF7E0FF52
:1024E00006462649284606EBC606FFF7D9FF06EB47
:1024F00000163E44F6B2632E19D929462046BDE89F
:10250000F84001F0E3BF252E32D107221A492846B0
:10251000FEF732FD80B91A4B224603F1100153F841
:10252000040B8B4242F8040BF9D1073510342E7896
:10253000002EE8D12670F8BD082210492846FEF783
:102540001BFDA8B9A21C0F4B0F48104E1978023280
:102550000909415C02F8041C13F8011B01F00F018A
:10256000B342415C02F8031CF0D118340835DEE7B1
:10257000013504F8016BDAE7384500082F450008FB
:102580004045000800E8F11F514500080CE8F11F24
:10259000BFF34F8F044B1A695107FCD1D3F81021B8
:1025A0005207F8D1704700BF0020005208B50D4B0C
:1025B0001B78ABB9FFF7ECFF0B4BDA68D10704D5FA
:1025C0000A4A5A6002F188325A60D3F80C21D207C5
:1025D00006D5064AC3F8042102F18832C3F8042163
:1025E00008BD00BFE84100200020005223016745DC
:1025F00008B5114B1B78F3B9104B1A69510703D575
:10260000DA6842F04002DA60D3F81021520705D5AB
:10261000D3F80C2142F04002C3F80C21FFF7B8FFB9
:10262000064BDA6842F00102DA60D3F80C2142F07E
:102630000102C3F80C2108BDE8410020002000522F
:102640000F289ABF00F5806040040020704700000A
:102650004FF4003070470000102070470F2808B575
:102660000BD8FFF7EDFF00F500330268013204D10B
:1026700004308342F9D1012008BD0020FCE70000AE
:102680000F2838B505463FD8FFF782FF1F4CFFF7EC
:102690008DFF4FF0FF3307286361C4F814311DD854
:1026A0002361FFF775FF030243F02403E360E3684F
:1026B00043F08003E36023695A07FCD42846FFF700
:1026C00067FFFFF7BDFF4FF4003100F0C7F9284660
:1026D000FFF78EFFBDE83840FFF7C0BFC4F81031E8
:1026E000FFF756FFA0F108031B0243F02403C4F8D0
:1026F0000C31D4F80C3143F08003C4F80C31D4F819
:1027000010315B07FBD4D9E7002038BD0020005210
:102710002DE9F74F04468846104644EA0203DB06DB
:1027200003D0002003B0BDE8F08F20F01F00334D30
:10273000334EFFF73BFF08EB000A324FD04503D181
:102740000120FFF755FFEDE720224146204601F02A
:10275000ADFE18B9203408F12008EFE7234604F154
:10276000200219680131DCD104339342F9D104F11C
:102770007843B3F5801F35BF234A2A46234838469D
:1027800034BFDFF890B0B3460192FFF701FF4FF07E
:10279000FF33A4EB080E08F11C0C019ACBF80030B3
:1027A000036843F002030360A8F10403116811F009
:1027B0000509FBD153F8041F63454EF80310F5D10A
:1027C000BFF34F8FFFF7E4FE4FF0FF33CBF800303D
:1027D000036823F002030360BFF34F8F0C4BC3F871
:1027E0005C42BFF34F8FBFF36F8F202241462046DC
:1027F00001F05CFE0028ADD04846A2E7102100524F
:10280000142100520C210052102000520C200052C2
:1028100000ED00E01420005210B5084C237828B1D8
:102820001BB9FFF7C3FE0123237010BD002BFCD0A2
:102830002070BDE81040FFF7DBBE00BFE84100207C
:102840002DE9F74F0E460546002878D011F00D0807
:1028500039D1002944D04FF0080A4FF00109394F0F
:1028600006F0040306EA090BBBF1000F44D07969B6
:10287000CC0741D409F101090C37B9F1060FF3D1A6
:10288000B8F1000F13D1304E5246294606EB08002E
:1028900001F054F9044658BB08F11808B8F1780F54
:1028A000F2D15246294601F049F9044600BB52468E
:1028B0002946264801F042F9044600283AD120462C
:1028C00003B0BDE8F08F0F0707D5431E034236D192
:1028D00082461F3525F01F05BFE74FF0200AF8E7B5
:1028E00001460822304601F029F904460028B2D0FA
:1028F0002A46002120461FE0B3B1796911F0040F88
:10290000B8D0310702D579690A07B3D501931820E9
:102910000F4B5246294600FB093001F00FF9019B8D
:1029200004460028A6D0E3E7B007EAD5796911F09C
:10293000020FE5E72A460021FEF734FBBFE700243B
:10294000BDE700BF784700081C420020EC41002092
:10295000044200200121FFF773BF0000F8B5144DB9
:1029600001241827134E40F2FF3200210120FEF708
:1029700019FB07FB046001342A6955F80C1F01F0AC
:10298000C9F8062CF5D137254FF4C0542046FFF77F
:10299000E1FF014628B122460748BDE8F84001F0B2
:1029A000B9B8C4EBC404013D4FEAD404EED1F8BD7C
:1029B0007847000804420020EC41002008B101F0F3
:1029C00031B970470244064BD2B210B5904200D1E3
:1029D00010BD441C53F8200041F8040BE0B2F5E7A9
:1029E000504000580E4B30B51C6F240405D41C6FAA
:1029F0001C671C6F44F400441C670A4C02442368A3
:102A0000D2B243F480732360074B904200D130BDB3
:102A1000441C51F8045B43F82050E0B2F5E700BFD6
:102A200000440258004802585040005807B501229F
:102A300001A90020FFF7C6FF019803B05DF804FB71
:102A400013B50446FFF7F2FFA04205D0012201A909
:102A500000200194FFF7C6FF02B010BD0144BFF390
:102A60004F8F064B884204D3BFF34F8FBFF36F8F56
:102A70007047C3F85C022030F4E700BF00ED00E0CF
:102A8000034B1A681AB9034AD2F8D0241A60704767
:102A9000944200200040025808B5FFF7F1FF024BB6
:102AA000D878C0F3800008BD94420020EFF309837A
:102AB000054968334A6B22F001024A6383F30988AF
:102AC000002383F31188704700EF00E0302080F38B
:102AD000118862B60D4B0E4AD96821F4E0610904F1
:102AE000090C0A430B49DA60D3F8FC2042F08072EB
:102AF000C3F8FC20084AC2F8B01F116841F0010178
:102B000011602022DA7783F82200704700ED00E0A0
:102B10000003FA0555CEACC5001000E0302310B517
:102B200083F311880E4B5B6813F4006314D0F1EE4D
:102B3000103AEFF309844FF08073683CE361094B6E
:102B4000DB6B236684F30988FFF7FCF910B1064BB1
:102B5000A36110BD054BFBE783F31188F9E700BFC4
:102B600000ED00E000EF00E02F0400083204000850
:102B700070B5BFF34F8FBFF36F8F1A4A0021C2F8B1
:102B80005012BFF34F8FBFF36F8F536943F400337D
:102B90005361BFF34F8FBFF36F8FC2F88410BFF341
:102BA0004F8FD2F8803043F6E074C3F3C900C3F30B
:102BB0004E335B0103EA0406014646EA817501399A
:102BC000C2F86052F9D2203B13F1200FF2D1BFF3CB
:102BD0004F8F536943F480335361BFF34F8FBFF37B
:102BE0006F8F70BD00ED00E0FEE700001E4A1F4B36
:102BF0001F4970B58B422ED31E4A002193422FD31A
:102C00001D4AC2F88410BFF34F8FD2F8803043F6CC
:102C1000E074C3F3C900C3F34E335B0103EA040657
:102C2000014646EA81750139C2F86C52F9D2203B5F
:102C300013F1200FF2D1BFF34F8FBFF36F8FBFF3AC
:102C40004F8FBFF36F8F0023C2F85032BFF34F8F07
:102C5000BFF36F8F70BD52F8040B43F8040BC9E744
:102C600043F8041BCAE700BF8C49000888440020D1
:102C7000884400208844002000ED00E0074BD3F892
:102C8000D82022EA0002C3F8D820D3F8002122EA93
:102C90000002C3F80021D3F8003170470044025805
:102CA00070B5D0E9244300224FF0FF359E6804EB55
:102CB00042135101D3F80009002805DAD3F80009BE
:102CC00040F08040C3F80009D3F8000B002805DA73
:102CD000D3F8000B40F08040C3F8000B01326318BA
:102CE0009642C3F80859C3F8085BE0D24FF00113CD
:102CF000C4F81C3870BD0000890141F02001016159
:102D000003699B06FCD41220FFF758B908B50A489E
:102D1000FEF7F8FD084A094B0948C2F89030094B04
:102D2000C2F89430FEF7EEFD074B054AC2F890302A
:102D3000064BC2F8943008BD4C4300200000084008
:102D4000B0420020CC47000800000440C047000803
:102D500070B503780546012B5CD1434BD0F8904009
:102D6000984258D1414B0E216520D3F8D82042F02B
:102D70000062C3F8D820D3F8002142F00062C3F803
:102D80000021D3F80021D3F8802042F00062C3F87C
:102D90008020D3F8802022F00062C3F88020D3F88E
:102DA0008030FEF7DBFB324BE360324BC4F8003877
:102DB0000023D5F89060C4F8003EC02323604FF490
:102DC0000413A3633369002BFCDA01230C20336165
:102DD000FFF7F4F83369DB07FCD41220FFF7EEF8B5
:102DE0003369002BFCDA00262846A660FFF758FF5F
:102DF0006B68C4F81068DB68C4F81468C4F81C6811
:102E000083BB1D4BA3614FF0FF336361A36843F0A5
:102E10000103A36070BD194B9842C9D1134B4FF009
:102E200080600E21D3F8D82042F00072C3F8D82079
:102E3000D3F8002142F00072C3F80021D3F800213A
:102E4000D3F8802042F00072C3F88020D3F88020AD
:102E500022F00072C3F88020D3F88030FFF70EFF15
:102E60004D209EE7064BCDE74C430020004402581E
:102E70004014004003002002003C30C0B04200205B
:102E8000083C30C0F8B5D0F89040054600214FF01E
:102E900000662046FFF730FFD5F8941000234FF06E
:102EA00001128F684FF0FF30C4F83438C4F81C2882
:102EB00004EB431201339F42C2F80069C2F8006B71
:102EC000C2F80809C2F8080BF2D20B68D5F89020B6
:102ED000C5F89830636210231361166916F0100666
:102EE000FBD11220FFF76AF8D4F8003823F4FE6310
:102EF000C4F80038A36943F4402343F01003A361EE
:102F00000923C4F81038C4F814380B4BEB604FF0A9
:102F1000C043C4F8103B094BC4F8003BC4F8106927
:102F2000C4F80039D5F8983003F1100243F4801347
:102F3000C5F89820A362F8BDD8470008408000106B
:102F4000D0F8902090F88A10D2F8003823F4FE636D
:102F500043EA0113C2F800387047000000EB810318
:102F6000DA682DE9F04716688046D0F890500C4694
:102F700006F003064FEA810905EB4110731E4FEA84
:102F8000411A1031022B4FF0000398BFB604C0F86D
:102F9000103B4FF001038CBF324E06F1805603FA0E
:102FA00001F3916998BF06F5004600293AD0508A8E
:102FB00004F15801304349016850D5F81C180B43FF
:102FC000C5F81C38AA4400230127611ECAF810392D
:102FD000A74053698BB3138A928B9B08012A88BF41
:102FE0005343D8F89820981842EA034201F140036D
:102FF0002146C8F89800284605EB83035A60FFF77E
:103000007BFE08EB0900C3681B8A43EA84534834FB
:10301000334364012B51D5F81C383B43C5F81C38A9
:10302000BDE8F087D0F8001B21F40041C0F8001B78
:10303000D5F81C1821EA0303C2E704F13F030A4A4A
:103040002146284605EB83035A60FFF755FEDAF860
:10305000003923F40043CAF80039D5F81C3823EAB4
:103060000703DBE70080001000040002D0F8942082
:103070001268C0F89820FFF713BE00005831D0F84E
:10308000903049015B5813F4004004D013F4001F42
:1030900014BF0120022070474831D0F89030490118
:1030A0005B5813F4004004D013F4001F14BF012038
:1030B0000220704700EB8100C368196A0B68136037
:1030C0004B6853607047000000EB810330B5DD684A
:1030D000AB691A68DA6019B9402A84BF40221A60C5
:1030E0006B8A5C1E1444D0F89020480102EB411119
:1030F000B4FBF3F46343033323F0030343EAC44311
:1031000043F0C043C1F8103B2B6803F00303012BCD
:103110000CD1D2F8083813F4807FD1F8003B14BFEB
:1031200043F0805343F00053C1F8003B0244D2F80F
:10313000003B43F00443C2F8003B30BD2DE9F041B1
:10314000D0F8906005460C4606EB4113D3F8087B97
:103150003A07C3F8087B08D5D6F814381B0704D5FE
:1031600000EB8103DB685B689847FA071FD5D6F848
:103170001438DB071BD505EB8403D968CCB98B6900
:10318000488A5A68B2FBF0F600FB16228AB9186822
:10319000DA6890420DD2121AC3E90024302383F377
:1031A000118821462846FFF78FFF84F31188BDE878
:1031B000F08101226B89A24023EA02036B81CB6874
:1031C000002BF4D021462846BDE8F0411847000006
:1031D00000EB8103D0F89020480170B5DD686C6980
:1031E0002368E36033BB13184FF40024C3F810497D
:1031F0002B6803F00303012B0DD1D2F80838141803
:1032000013F4807FD4F8003914BF43F0805343F0A7
:103210000053C4F800391044D0F8003943F0044397
:10322000C0F800390123D2F834088B400343C2F8B8
:10323000343870BD19B9402B84BF402323602E8AD7
:10324000741E1C44B4FBF6F443EAC443141843F060
:103250000053C4F81039CBE72DE9F843D0F890605B
:1032600005460C464F0106EB4113D3F8088918F0C8
:10327000010FC3F808891CD0D6F81038DB0718D521
:1032800000EB8103D3F80CC0DCF81430D3F800E075
:10329000DA68964530D2A2EB0E024FF000091A60B0
:1032A000C3F80490302383F31188FFF791FF89F36B
:1032B000118818F0800F1DD0D6F834380126A640AA
:1032C000334217D005EB84030134D5F89050D3F87E
:1032D0000CC0E4B22F44DCF8142005EB0434D2F81F
:1032E00000E05168714513D3D5F8343823EA06035A
:1032F000C5F83438BDE8F883012203898A4023EAFF
:1033000002030381DCF80830002BD2D09847D0E7C5
:10331000AEEB0103BCF81000834228BF0346D7F888
:10332000180980B2B3EB800FE4D89068A0F10409CB
:1033300059F8048FC4F80080A0EB09089844B8F14C
:10334000040FF5D81844194490605160C9E7000093
:103350002DE9F047D0F8905004466E69AB691E40E5
:1033600016F480576E6103D0BDE8F047FEF73ABB14
:10337000002E12DAD5F8003E990705D0D5F8003EA8
:1033800023F00303C5F8003ED5F80438204623F0A7
:103390000103C5F80438FEF753FB320505D5204676
:1033A000FFF77EFC2046FEF739FBB3040CD5D5F8B9
:1033B000083813F0060FEB6823F470530CBF43F486
:1033C000105343F4A053EB6030071BD56368DB68F0
:1033D0001BB9AB6923F00803AB612378052B0CD133
:1033E000D5F8003E990705D0D5F8003E23F0030339
:1033F000C5F8003E2046FEF723FB6368DB680BB18F
:1034000020469847F20200F1A280B3020DD5D4F80D
:1034100090904FF000084FF0010AD4F894305FFA12
:1034200088F19B688B4280F0CC80F00619D5D4F8E7
:103430009000026AC2F30A1C02F00F0302F4F012B9
:10344000B2F5802F00F0E580B2F5402F09D104EBF2
:103450008303002200F58050DB681B6A944540F02E
:10346000CD803003D5F8185835D5E90303D50021B0
:103470002046FFF763FEAA0303D501212046FFF78C
:103480005DFE6B0303D502212046FFF757FE2F0395
:1034900003D503212046FFF751FEE80203D504219E
:1034A0002046FFF74BFEA90203D505212046FFF772
:1034B00045FE6A0203D506212046FFF73FFE2B0298
:1034C00003D507212046FFF739FEEF0103D5082178
:1034D0002046FFF733FE700340F1C080E90703D5B3
:1034E00000212046FFF7B8FEAA0703D50121204698
:1034F000FFF7B2FE6B0703D502212046FFF7ACFEB3
:103500002F0703D503212046FFF7A6FEEE0603D5BD
:1035100004212046FFF7A0FEA80603D5052120467A
:10352000FFF79AFE690603D506212046FFF794FEB1
:103530002A0603D507212046FFF78EFEEB0540F152
:103540008D8020460821BDE8F047FFF785BED4F8FE
:1035500090A04FF00009D4F894305FFA89F89B6886
:103560004345FFF452AF0AEB4813D3F8002902F4A5
:103570004022B2F5802F21D1D3F80029002A1DDA8C
:10358000D3F8002942F09042C3F80029D3F800296B
:10359000002AFBDB4146D4F89000FFF7ADFB012287
:1035A000238902FA08F223EA0203238104EB880349
:1035B000DB689B6813B141462046984709F1010931
:1035C000C9E709EB4112D2F8003B03F44023B3F5FD
:1035D000802F10D1D2F8003B002B0CDA63890AFA55
:1035E00001F223EA0203638104EB8103DB68DB68F9
:1035F0000BB12046984708F101080EE7910700D16A
:103600000768072A02F101029CBF03F8017B3F0A09
:1036100024E704EB830300F58050DA68D2F818E061
:10362000DEF80820DEE9001EA1EB0E0E00218C451D
:1036300008D1DB689B699A6862449A605A68624460
:103640005A600EE711F0030F00D107688E4501F1B3
:10365000010184BF02F8017B3F0AE8E7BDE8F0877B
:1036600008B50348FFF774FEBDE80840FFF756BAF7
:103670004C43002008B50348FFF76AFEBDE8084048
:10368000FFF74CBAB0420020D0F8903003EB411164
:10369000D1F8003B43F40013C1F8003B7047000031
:1036A000D0F8903003EB4111D1F8003943F4001306
:1036B000C1F8003970470000D0F8903003EB411199
:1036C000D1F8003B23F40013C1F8003B7047000021
:1036D000D0F8903003EB4111D1F8003923F40013F6
:1036E000C1F800397047000030B50433039C017203
:1036F000002104FB0325C160C0E90653049B03635A
:10370000059BC0E90000C0E90422C0E90842C0E905
:103710000A11436330BD00000022416AC260C0E963
:103720000411C0E90A226FF00101FEF7B7BC0000E6
:10373000D0E90432934201D1C2680AB9181D70471A
:1037400000207047036919600021C2680132C2601D
:10375000C269134482699342036124BF436A0361CF
:10376000FEF790BC38B504460D46E3683BB162698C
:103770000020131D1268A3621344E36207E0237A5A
:1037800033B929462046FEF76DFC0028EDDA38BD36
:103790006FF00100FBE70000C368C269013BC36032
:1037A0004369134482699342436124BF436A43617E
:1037B00000238362036B03B11847704770B5302351
:1037C000044683F31188866A3EB9FFF7CBFF0546AE
:1037D00018B186F31188284670BDA36AE26A13F80F
:1037E000015B9342A36202D32046FFF7D5FF00237B
:1037F00083F31188EFE700002DE9F84F04460F46E8
:1038000091469A464FF0300888F311880026B34657
:10381000A56A4DB951462046FFF7A4FF20B185F3B4
:1038200011883046BDE8F88FD4E90A15A9EB0603E4
:103830006D1A9D4228BF1D46402D1AD93B4601F105
:10384000400251F8040B914243F8040BF9D1A36AEA
:10385000403740364033E26AA3629A4202D820469B
:10386000FFF79AFF8BF311884E45DAD288F311885F
:10387000CEE738462A46FDF775FBA36A2F442E444F
:103880002B44E8E710B5029C0433017203FB0421CA
:10389000C460C0E906130023C0E90A33039B036335
:1038A000049BC0E90000C0E90422C0E90842436368
:1038B00010BD0000026A6FF00101C260426AC0E9F7
:1038C00004220022C0E90A22FEF7E8BB0346D0E941
:1038D0000420824201D1DB681BB950F8043B0B6025
:1038E000704700231846FAE7C3680021C269013314
:1038F000C3604369134482699342436124BF436AAE
:103900004361FEF7BFBB000038B504460D46E368CF
:103910003BB1236900201A1DA262E2691344E362ED
:1039200007E0237A33B929462046FEF79BFB00289F
:10393000EDDA38BD6FF00100FBE7000003691960A4
:10394000C268013AC260C26913448269934203614A
:1039500024BF436A036100238362036B03B11847EA
:103960007047000070B530230D460446114683F3BE
:103970001188866A2EB9FFF7C7FF10B186F3118848
:1039800070BDA36A1D70A36AE26A01339342A36209
:1039900004D3E16920460439FFF7D0FF002080F30B
:1039A0001188EDE72DE9F84F05460C4691469A46F9
:1039B0004FF0300888F311880027BB46AE6A4EB935
:1039C00051462846FFF7A0FF20B186F311883846FC
:1039D000BDE8F88FD5E90A06A9EB0703361A9E421F
:1039E00028BF1E46402E1AD904F1400354F8042B78
:1039F0009C4240F8042BF9D1AB6A40374033EA6A65
:103A0000AB629A4204D8E96928460439FFF796FF69
:103A10008BF311884F45DAD288F31188CEE721461F
:103A20003246FDF79FFAAB6A344437443344E6E745
:103A3000D0E9042103468A4216D1C068A8B1986A29
:103A400098B10438801A10D010600120D96801396B
:103A5000D960D9690A4499698A421A6124BF5A6AAD
:103A60001A6100229A6270470020704700F060BA25
:103A7000014B586A704700BF000C0040034B002206
:103A800058631A610222DA60704700BF000C0040E0
:103A9000014B0022DA607047000C0040014B586374
:103AA000704700BF000C0040024B034A1A60034AF3
:103AB0005A607047E843002088440020000002203C
:103AC000074B494210B55C68201A08401968821AF1
:103AD0008A4203D3A24201D85A6010BD0020FCE7FD
:103AE000E843002008B5302383F31188FFF7E8FF8F
:103AF000002383F3118808BD04480121044B0360AF
:103B00000023C0E901330C3000F018B9F043002065
:103B1000E53A0008CB1D083A23F00703591A521A58
:103B2000012110B4D2080024C0E9004384600C30A5
:103B30001C605A605DF8044B00F000B92DE9F84FA5
:103B4000374BCD1D0F46002814BF80469846082AE3
:103B50004FEAD50538BF082208F10C0A08F1040421
:103B60009146504600F006F909F10701C9F1000C31
:103B70002246246874B9504600F006F9D8F800309F
:103B8000CBB308224946E8009847044698B340E979
:103B9000028730E06618D4F804E006EA0C060EF15D
:103BA0000103A6F1080004EBC3038342E0D99E1B86
:103BB000B5EBE60F4FEAE60BDAD884421ED204F1E9
:103BC0000803AB45A0EB03034FEAE30363600BD9A3
:103BD000691CABEB050B00EBC1020BF1FF3353602B
:103BE000236840F83130226004464760504644F86C
:103BF000088B00F0C9F82046BDE8F88FAE45216873
:103C00000AD0013504EBC50044F8351000F1080175
:103C10005B1A0146DB10436020461160E4E700BFF9
:103C2000F0430020F8B550F8043C044650F8085C16
:103C3000A0F1080607332F1D0C35DB0840F8043CC3
:103C4000284600F097F83B469F421A6801D0B342DD
:103C500028D20AB1964225D244F8082C54F8042CF4
:103C60001E60013254F8081C06EBC200814206D1E6
:103C7000486810440A6844F8040C44F8082C596851
:103C80004A1C03EBC202964207D154F8042C0132BD
:103C90000A445A6054F8082C1A602846BDE8F840D7
:103CA00000F072B81346CFE7FEE7000070B50025BC
:103CB00004461A4B86B085620E4601635860FEF7D3
:103CC00005FF04F11003A560E562C4E904334FF079
:103CD000FF33C4E90044C4E90635FFF7C9FE2B46AB
:103CE000024604F134012046C4E9082380230C4A2B
:103CF0002565FEF76DF901230A4AE060009203751D
:103D0000684672680192B268CDE90223064BCDE99C
:103D10000435FEF785F906B070BD00BFA826002067
:103D20006245000867450008A93C0008024AD36ABA
:103D30000343D362704700BF50260020C0E9000053
:103D4000816070478368013B002B10B583600CDAFB
:103D5000074BDC684368A061206063601C604460BE
:103D60000520FEF7A7F8A06910BD0020FCE700BF02
:103D70005026002008B5302383F31188FFF7E2FFB7
:103D8000002383F3118808BD08B53022034682F36F
:103D9000118882680132002A826006DC00680021F6
:103DA00002681A605360FEF7B1F8002383F31188AC
:103DB00008BD00004B6843608B688360CB68C360BC
:103DC0000B6943614B6903628B6943620B68036053
:103DD0007047000008B53B4B40F2FF713A48D3F8FA
:103DE00088200A43C3F88820D3F888206FF30A029A
:103DF000C3F88820D3F88820D3F8E0200A43C3F81A
:103E0000E020D3F808210A433049C3F808210A46C4
:103E1000D3F80831FFF7CEFF00F580601C31FFF7C3
:103E2000C9FF02F1380100F58060FFF7C3FF02F11E
:103E3000540100F58060FFF7BDFF02F1700100F54D
:103E40008060FFF7B7FF02F18C0100F58060FFF79B
:103E5000B1FF02F1A80100F58060FFF7ABFF02F1AE
:103E6000C40100F58060FFF7A5FF02F1E00100F555
:103E70008060FFF79FFF02F1FC0100F58060FFF713
:103E800099FF02F58C7100F58060FFF793FF00F059
:103E90001BF90F4BD3F8902242F00102C3F8902295
:103EA000D3F8942242F00102C3F894220522C3F809
:103EB00098204FF06052C3F89C20064AC3F8A02017
:103EC00008BD00BF0044025800000258FC4700082B
:103ED00000ED00E01F00080308B500F0C9FAFEF786
:103EE00051F8104BD3F8DC2042F04002C3F8DC203C
:103EF000D3F8042122F04002C3F80421D3F804319E
:103F0000094B1A6842F008021A601A6842F004026B
:103F10001A60FEF7B5FDFEF721FDBDE80840FEF78B
:103F20009DBA00BF004402580018024870470000C4
:103F3000114BD3F8E82042F00802C3F8E820D3F888
:103F4000102142F00802C3F810210C4AD3F81031B6
:103F5000D36B43F00803D363C722094B9A624FF037
:103F6000FF32DA6200229A615A63DA605A600122F3
:103F70005A611A60704700BF004402580010005C8C
:103F8000000C0040094A08B51169D3680B40D9B24A
:103F90009B076FEA0101116107D5302383F3118874
:103FA000FEF70AF8002383F3118808BD000C0040D7
:103FB000064BD3F8DC200243C3F8DC20D3F80421FD
:103FC0001043C3F80401D3F8043170470044025889
:103FD00008B53C4B4FF0FF31D3F8802062F000422F
:103FE000C3F88020D3F8802002F00042C3F880207C
:103FF000D3F88020D3F88420C3F88410D3F8842029
:104000000022C3F88420D3F88400D86F40F0FF402A
:1040100040F4FF0040F4DF4040F07F00D867D86FE5
:1040200020F0FF4020F4FF0020F4DF4020F07F006C
:10403000D867D86FD3F888006FEA40506FEA5050C5
:10404000C3F88800D3F88800C0F30A00C3F88800DA
:10405000D3F88800D3F89000C3F89010D3F89000FC
:10406000C3F89020D3F89000D3F89400C3F89410CC
:10407000D3F89400C3F89420D3F89400D3F89800B0
:10408000C3F89810D3F89800C3F89820D3F8980094
:10409000D3F88C00C3F88C10D3F88C00C3F88C20B4
:1040A000D3F88C00D3F89C00C3F89C10D3F89C1074
:1040B000C3F89C20D3F89C30FDF776F9BDE80840A2
:1040C00000F0AEB90044025808B50122534BC3F8C2
:1040D0000821534BD3F8F42042F00202C3F8F42035
:1040E000D3F81C2142F00202C3F81C210222D3F8AB
:1040F0001C314C4BDA605A689104FCD54A4A1A606C
:1041000001229A60494ADA6000221A614FF4404263
:104110009A61444B9A699204FCD51A6842F4807201
:104120001A603F4B1A6F12F4407F04D04FF4803274
:104130001A6700221A671A6842F001021A60384BA7
:104140001A685007FCD500221A611A6912F0380269
:10415000FBD1012119604FF0804159605A67344A00
:10416000DA62344A1A611A6842F480321A602C4BBF
:104170001A689103FCD51A6842F480521A601A68D2
:104180009204FCD52C4A2D499A6200225A63196385
:1041900001F57C01DA6301F2E71199635A64284A58
:1041A0001A64284ADA621A6842F0A8521A601C4B54
:1041B0001A6802F02852B2F1285FF9D148229A61B8
:1041C0004FF48862DA6140221A621F4ADA641F4A99
:1041D0001A651F4A5A651F4A9A6532231E4A1360A0
:1041E000136803F00F03022BFAD10D4A136943F051
:1041F00003031361136903F03803182BFAD14FF04E
:104200000050FFF7D5FE4FF08040FFF7D1FE4FF092
:104210000040BDE80840FFF7CBBE00BF0080005162
:10422000004402580048025800C000F0020000019B
:104230000000FF01008890081210200063020901AD
:10424000470E0508DD0BBF01200000200000011013
:104250000910E00000010110002000524FF0B042B0
:1042600008B5D2F8883003F00103C2F8883023B1D2
:10427000044A13680BB150689847BDE80840FEF740
:104280004DBC00BF084400204FF0B04208B5D2F842
:10429000883003F00203C2F8883023B1044A9368DF
:1042A0000BB1D0689847BDE80840FEF737BC00BFA7
:1042B000084400204FF0B04208B5D2F8883003F02F
:1042C0000403C2F8883023B1044A13690BB1506962
:1042D0009847BDE80840FEF721BC00BF0844002015
:1042E0004FF0B04208B5D2F8883003F00803C2F8A6
:1042F000883023B1044A93690BB1D0699847BDE86F
:104300000840FEF70BBC00BF084400204FF0B0424D
:1043100008B5D2F8883003F01003C2F8883023B112
:10432000044A136A0BB1506A9847BDE80840FEF78B
:10433000F5BB00BF084400204FF0B04310B5D3F8E0
:10434000884004F47872C3F88820A30604D5124A82
:10435000936A0BB1D06A9847600604D50E4A136B76
:104360000BB1506B9847210604D50B4A936B0BB1E8
:10437000D06B9847E20504D5074A136C0BB1506C1B
:104380009847A30504D5044A936C0BB1D06C9847A9
:10439000BDE81040FEF7C2BB084400204FF0B04318
:1043A00010B5D3F8884004F47C42C3F88820620535
:1043B00004D5164A136D0BB1506D9847230504D5EB
:1043C000124A936D0BB1D06D9847E00404D50F4AA3
:1043D000136E0BB1506E9847A10404D50B4A936E2F
:1043E0000BB1D06E9847620404D5084A136F0BB125
:1043F000506F9847230404D5044A936F0BB1D06FD4
:104400009847BDE81040FEF789BB00BF0844002074
:1044100008B5FFF7B7FDBDE80840FEF77FBB000019
:10442000062108B50846FDF799F806210720FDF793
:1044300095F806210820FDF791F806210920FDF7DF
:104440008DF806210A20FDF789F806211720FDF7CF
:1044500085F806212820FDF781F809217A20FDF74B
:104460007DF807213220BDE80840FDF777B800004D
:1044700008B5FFF7ADFD00F00BF8FDF741FAFDF7C9
:1044800013F9FFF753FDBDE80840FFF7EFBA00004E
:104490000023054A19460133102BC2E9001102F12D
:1044A0000802F8D1704700BF0844002010B5013958
:1044B0000244904201D1002005E0037811F8014F39
:1044C000A34201D0181B10BD0130F2E7034611F8DA
:1044D000012B03F8012B002AF9D1704701105A0073
:1044E00003105900012058000320560053544D3347
:1044F0003248373F3F3F0053544D333248373378CB
:104500002F3732780053544D3332483734332F37F6
:1045100035332F3735300063300041726475506990
:104520006C6F740025424F415244252D424C0025AA
:1045300053455249414C250025424F4152442500E4
:104540005468756E64657254696765723135696E59
:1045500000303132333435363738394142434445FF
:1045600046006D61696E0069646C65001000024070
:10457000080002400008024000000B002800024032
:10458000080002400408024006010C0040000240FE
:10459000080002400808024010020D0058000240C6
:1045A000080002400C08024016030E007000024092
:1045B0000C0002401008024000040F008800024076
:1045C0000C0002401408024006051000A000024042
:1045D0000C0002401808024010061100B80002400A
:1045E0000C0002401C08024016072F001004024075
:1045F0000804024020080240000838002804024055
:104600000804024024080240060939004004024020
:104610000804024028080240100A3A0058040240E8
:10462000080402402C080240160B3B0070040240B4
:104630000C04024030080240000C3C008804024098
:104640000C04024034080240060D4400A00402405D
:104650000C04024038080240100E4500B804024025
:104660000C0402403C080240160F46000000000007
:1046700025160008111600084D1600083916000806
:1046800045160008311600081D1600080916000816
:1046900059160008010000000000000000000000A2
:1046A0001745000840240020502600204C430020DD
:1046B00001010200FD23000809230008A9230008C6
:1046C0008D2300080300000000000000FD18000812
:1046D0000000000010000000B026002000000000D4
:1046E00001000000000000000200000000000000C7
:1046F00049180008B518000840004000D0260020E6
:10470000C02600200200000000000000040309048D
:10471000430000001847000809024300020100C0DE
:104720003209040000010202010005240010010505
:104730002401000104240202052406000107058269
:10474000030800FF09040100020A00000007050138
:104750000240000007058102400000001200000036
:10476000644700081201100102000040091241577D
:10477000000201020301000000000020000002000E
:1047800002000000000000300000040008000000EB
:1047900000000024000008000400000000040000E5
:1047A00000FC000002000000000004300080000057
:1047B00008000000000000380000010001000000B7
:1047C0000001000000100000080000008000000050
:1047D000400100000800000000000000591A000815
:1047E000111D0008BD1D000840004000A04200202F
:1047F000A042002001000000984200200001806AD1
:1048000000000000AAAAAAAA00010064FFFF00009D
:104810000000000000A00A000000000100000000ED
:10482000AAAAAAAA00000001FFFF000000000000E1
:10483000000000000000001000000000AAAAAAAAC0
:1048400000000000FFFF000000000000000000006A
:104850000000000000000000AAAAAAAA00000000B0
:10486000FFFF00000000000000000000000000004A
:1048700000000000AAAAAAAA00000000FFFF000092
:104880000000000000000000000000000000000028
:10489000AAAAAAAA00000000FFFF00000000000072
:1048A000000000000000000000000000AAAAAAAA60
:1048B00000000000FFFF00000000000000000000FA
:1048C0000000000000000000AAAAAAAA0000000040
:1048D000FFFF0000000000000000000000000000DA
:1048E00000000000AAAAAAAA00000000FFFF000022
:1048F00000000000000000000000000000000000B8
:10490000AAAAAAAA00000000FFFF00000000000001
:10491000000000000000000000000000AAAAAAAAEF
:1049200000000000FFFF0000000000000000000089
:10493000392B00000000000000001A0000000000F9
:10494000FF00000000000000EC44000883040000A9
:10495000F7440008500400000545000800960000D8
:1049600000000800040000000C47000800000000E0
:104970000000000000000000000000000000000037
:0C4980000000000000960000000008008D
:00000001FF
